:100000000C9434000C9451000C9451000C94510049
:100010000C9451000C9451000C9451000C9451001C
:100020000C9451000C9451000C9451000C941C0140
:100030000C9451000C9451000C94C4010C94510088
:100040000C9451000C9451000C9400020C9451003B
:100050000C9451000C9451000C9451000C945100DC
:100060000C9451000C94510011241FBECFEFD8E026
:10007000DEBFCDBF11E0A0E0B1E0E8EBF4E002C0EC
:1000800005900D92AC33B107D9F721E0ACE3B1E0B4
:1000900001C01D92AD35B207E1F70E9453000C94E8
:1000A0005A020C9400000E945D000E9465000E94AC
:1000B00074000E9489007894FFCF8EEF8AB98FE197
:1000C00087B98FE284B92D9A089516BC8EE187BD59
:1000D000EEE6F0E080818260808385B5856085BD35
:1000E00084B5826084BD08951092850010928400CA
:1000F00089E09DE39093890080938800EFE6F0E02B
:10010000808182608083E1E8F0E080818D6080837F
:10011000089587E690E09093C5008093C40080E93D
:100120008093C10086E08093C2000895E1E8F0E08A
:1001300080818A7F80830895E1E8F0E08081856096
:100140008083089564E171E08DE391E00E945102A3
:10015000892B69F4109251011092500110924F01B5
:1001600010924E0110924D0110924C0108956BE1D6
:1001700071E08DE391E00E945102892B19F40E94F5
:100180009600089563E271E08DE391E00E945102D0
:10019000892B19F40E949C0008956CE271E08DE3B4
:1001A00091E00E945102892B21F48DE68093010198
:1001B000089564E371E08DE391E00E945102892B80
:1001C00021F488E680930101089580913D018332F6
:1001D00091F580913E01833471F580913F01833424
:1001E00051F580914001883431F580914101843589
:1001F00011F5809142018D33F1F4809149018A32E9
:10020000D1F4EDE3F1E08681805380934C01878146
:10021000805380934D018085805380934E0181856A
:10022000805380934F018285805380935001838552
:1002300080538093510108951F920F920FB60F9231
:1002400011242F933F934F935F938F939F93AF937B
:10025000BF93EF93FF93809151018F5F8A3018F421
:100260008093510107C010925101809150018F5F1E
:100270008093500180915001863038F010925001E7
:1002800080914F018F5F80934F0180914F018A30A1
:1002900038F010924F0180914E018F5F80934E0194
:1002A00080914E01863038F010924E0180914D01C0
:1002B0008F5F80934D0180914D018A3040F0109204
:1002C0004D0180914C018F5F80934C0112C0909141
:1002D0004C01943070F0823060F010925101109215
:1002E000500110924F0110924E0110924D01109248
:1002F0004C01E0915101F0E0EA5FFE4F8081E7E5BB
:10030000F1E08083A0915001B0E0AA5FBE4F5C9104
:100310005183A0914F01B0E0AA5FBE4F2C91228380
:10032000A0914E01B0E0AA5FBE4F9C919383A09133
:100330004D01B0E0AA5FBE4F4C914483A0914C01A7
:10034000B0E0AA5FBE4F3C913583E0E1F1E08083ED
:10035000518322839383E3E5F1E0208391834283F9
:10036000338398B180E1892788B9FF91EF91BF91DC
:10037000AF919F918F915F914F913F912F910F90EE
:100380000FBE0F901F9018951F920F920FB60F92ED
:1003900011248F939F93EF93FF93809101018D36EA
:1003A00039F4E0915201F0E0E05FFE4F80818BB9BB
:1003B00080910101883639F4E0915201F0E0ED5A64
:1003C000FE4F80818BB986B1E0915201F0E0EE5F83
:1003D000FE4F80719081892B88B9809152018F5F87
:1003E000843019F08093520102C010925201FF91A3
:1003F000EF919F918F910F900FBE0F901F901895C6
:100400001F920F920FB60F9211242F933F934F9389
:100410005F936F937F938F939F93AF93BF93EF936C
:10042000FF9380913C0190E02091C600FC01E35CC9
:10043000FE4F208330913D01333291F08FEF809356
:100440003C01809100018823B1F0EDE3F1E081509F
:1004500090E0825C9E4F1192E817F907E1F70BC01C
:100460002A3249F4FC01E35CFE4F11828FEF809346
:100470003C010E94A20080913C018F5F80933C016F
:10048000FF91EF91BF91AF919F918F917F916F916C
:100490005F914F913F912F910F900FBE0F901F9042
:1004A0001895FB01DC018D91019080190110D9F3A1
:0804B000990B0895F894FFCFA9
:1004B8000F6D080402017E0CB69ECCDAFA0EFEDE41
:1004C8007E0CB69E23435253542A00234353544F61
:1004D800502A00234353544152542A00234D4F4479
:0C04E80045312A00234D4F4445322A00C4
:00000001FF
